:100000000C9435000C945D000C945D000C945D0024
:100010000C945D000C945D000C945D000C945D00EC
:100020000C945D000C945D000C945D000C945D00DC
:100030000C945D000C945D000C945D000C945D00CC
:100040000C9435020C945D000C94A5020C947F0274
:100050000C945D000C945D000C945D000C945D00AC
:100060000C945D000C945D00C40311241FBECFEFFF
:10007000D8E0DEBFCDBF11E0A0E0B1E0E6E3F8E0FC
:1000800002C005900D92AA36B107D9F722E0AAE680
:10009000B1E001C01D92A631B207E1F710E0C5E35F
:1000A000D0E004C02197FE010E941304C433D1079D
:1000B000C9F70E94D7020C9419040C9400008E50CA
:1000C000806480937C0080917A00806480937A00C1
:1000D00080917A0086FDFCCF809178009091790024
:1000E00008953FB7F8948091750190917601A091A1
:1000F0007701B091780126B5A89B05C02F3F19F074
:100100000196A11DB11D3FBFBA2FA92F982F882797
:10011000BC01CD01620F711D811D911D42E0660F72
:10012000771F881F991F4A95D1F70895AF92BF9204
:10013000CF92DF92EF92FF920F931F93CF93DF93B3
:100140006C017B018B01040F151FEB015E01AE18E2
:10015000BF08C017D10759F06991D601ED91FC9104
:100160000190F081E02DC6010995892B79F7C50131
:10017000DF91CF911F910F91FF90EF90DF90CF9083
:10018000BF90AF900895FC01538D448D252F30E032
:10019000842F90E0821B930B541710F0CF96089594
:1001A00001970895FC01918D828D981761F0A28DC1
:1001B000AE0FBF2FB11D5D968C91928D9F5F9F7387
:1001C000928F90E008958FEF9FEF0895FC01918D3D
:1001D000828D981731F0828DE80FF11D858D90E0AA
:1001E00008958FEF9FEF0895FC01918D228D892F47
:1001F00090E0805C9F4F821B91098F73992708952F
:1002000089E791E00E94F40021E0892B09F420E0C5
:10021000822F089580E090E0892B29F00E94000150
:1002200081110C9400000895FC01A48DA80FB92F32
:10023000B11DA35ABF4F2C91848D90E001968F730E
:100240009927848FA689B7892C93A089B1898C912D
:10025000837080648C93938D848D981306C002887C
:10026000F389E02D80818F7D80830895EF92FF9246
:100270000F931F93CF93DF93EC0181E0888F9B8DC9
:100280008C8D98131AC0E889F989808185FF15C083
:100290009FB7F894EE89FF896083E889F9898081A6
:1002A0008370806480839FBF81E090E0DF91CF9175
:1002B0001F910F91FF90EF900895F62E0B8D10E097
:1002C0000F5F1F4F0F731127E02E8C8D8E110CC006
:1002D0000FB607FCFACFE889F989808185FFF5CF51
:1002E000CE010E941401F1CFEB8DEC0FFD2FF11D1B
:1002F000E35AFF4FF0829FB7F8940B8FEA89FB898E
:1003000080818062CFCFCF93DF93EC01888D8823EB
:10031000B9F0AA89BB89E889F9898C9185FD03C068
:10032000808186FD0DC00FB607FCF7CF8C9185FF4D
:10033000F2CF808185FFEDCFCE010E941401E9CF7D
:10034000DF91CF910895FC0101900020E9F73197EA
:10035000AF01481B590BBC0189E791E00C94960052
:100360008F929F92AF92BF92CF92DF92EF92FF92C5
:100370000F931F93CF93DF93CDB7DEB7A1970FB63F
:10038000F894DEBF0FBECDBF6C01990FEE08FF08D9
:10039000F7FE47C06DE289E791E00E9436018C01CB
:1003A00022273327A9012C193D094E095F0919A2FB
:1003B000CE0181967C019AE0892E912CA12CB12C42
:1003C000CA01B901A50194010E94F103605DF70122
:1003D00062937F01211531054105510589F790E0B0
:1003E00080E0309719F0CF010E94A301080F191F78
:1003F00082E191E00E94A301800F911FA1960FB6A8
:10040000F894DEBF0FBECDBFDF91CF911F910F914A
:10041000FF90EF90DF90CF90BF90AF909F908F9024
:100420000895A701960119A28E010F5D1F4F8AE062
:10043000C82ED12CE12CF12CCA01B901A7019601DB
:100440000E94F103605DF80162938F01211531056F
:100450004105510589F7309729F0CF010E94A3018A
:100460008C01C6CF10E000E0C3CF1F920F920FB6F1
:100470000F9211242F933F938F939F93AF93BF932A
:100480008091710190917201A0917301B0917401FA
:100490003091700123E0230F2D3758F50196A11DEF
:1004A000B11D209370018093710190937201A0930C
:1004B0007301B09374018091750190917601A091C0
:1004C0007701B09178010196A11DB11D809375014E
:1004D00090937601A0937701B0937801BF91AF918B
:1004E0009F918F913F912F910F900FBE0F901F9072
:1004F000189526E8230F0296A11DB11DD2CF1F9299
:100500000F920FB60F9211242F933F934F935F9347
:100510006F937F938F939F93AF93BF93EF93FF93CB
:1005200089E791E00E941401FF91EF91BF91AF9193
:100530009F918F917F916F915F914F913F912F91FB
:100540000F900FBE0F901F9018951F920F920FB62D
:100550000F9211242F938F939F93EF93FF93E0912A
:100560008901F0918A018081E0918F01F0919001E1
:1005700082FD1BC09081809192018F5F8F732091CB
:100580009301821741F0E0919201F0E0E758FE4FAD
:10059000958F80939201FF91EF919F918F912F9171
:1005A0000F900FBE0F901F9018958081F4CF789414
:1005B00084B5826084BD84B5816084BD85B5826068
:1005C00085BD85B5816085BD80916E008160809319
:1005D0006E00109281008091810082608093810082
:1005E0008091810081608093810080918000816092
:1005F000809380008091B10084608093B1008091ED
:10060000B00081608093B00080917A008460809314
:100610007A0080917A00826080937A0080917A00DB
:10062000816080937A0080917A00806880937A005C
:100630001092C100E0918901F0918A0182E08083EB
:10064000E0918501F09186011082E0918701F0919F
:1006500088018FEC808310929101E0918D01F091DF
:100660008E0186E08083E0918B01F0918C01808186
:1006700080618083E0918B01F0918C0180818860A2
:100680008083E0918B01F0918C0180818068808370
:10069000E0918B01F0918C0180818F7D8083C0E09F
:1006A000D0E080E10E945F0090936F0180936E0123
:1006B0008FE00E945F0090936D0180936C018EE04B
:1006C0000E945F0090936B0180936A018DE491E03A
:1006D0000E94A30182E191E00E94A30185E191E0E3
:1006E0000E94A30182E191E00E94A3018DE291E0CA
:1006F0000E94A30180916E0190916F010E94B00150
:100700008EE391E00E94A30180916C0190916D01B4
:100710000E94B0018EE491E00E94A30180916A01E1
:1007200090916B010E94B0010E9471004B015C012D
:1007300080EDC82E87E0D82EE12CF12C0E947100AC
:10074000681979098A099B09683E734081059105FA
:10075000A8F321E0C21AD108E108F10888EE880E5A
:1007600083E0981EA11CB11CC114D104E104F10462
:1007700029F7209709F495CF0E940001882309F4F6
:1007800090CF0E9400008DCFE9E7F1E01382128242
:1007900088EE93E0A0E0B0E084839583A683B783DE
:1007A00084E091E09183808385EC90E09587848755
:1007B00084EC90E09787868780EC90E0918B808B2B
:1007C00081EC90E0938B828B82EC90E0958B848B14
:1007D00086EC90E0978B868B118E128E138E148E82
:1007E0000895A1E21A2EAA1BBB1BFD010DC0AA1F72
:1007F000BB1FEE1FFF1FA217B307E407F50720F08A
:10080000A21BB30BE40BF50B661F771F881F991F04
:100810001A9469F760957095809590959B01AC014D
:10082000BD01CF010895EE0FFF1F0590F491E02D5B
:060830000994F894FFCFCB
:100836000000000036019600C3008301F400D200D8
:10084600E6000D0A002D2D2D2D2D2D2D2D2D2D2DB6
:100856002D2D2D2D2D2D2D2D2D2D2D2D0049736951
:100866006B20736964646574693A200909005265EE
:100876006E6B204465676572693A200909004F72FC
:1008860074616D20617964C4B16E6CC4B16B20640F
:0A08960065676572693A20090000E9
:00000001FF
